:100000000C942A000C9401290C9434290C9467292F
:100010000C9447000C9447000C9447000C94470044
:100020000C9447000C9447000C94BE430C940E446F
:100030000C9447000C9447000C9447000C94470024
:100040000C94E7150C9447000C9447000C9447005F
:100050000C94470011241FBECFE5D8E0DEBFCDBF12
:1000600012E0A0E6B0E0E4EEF8E902C005900D92DF
:10007000AC33B107D9F712E0ACE3B2E001C01D9296
:10008000A635B107E1F70E9400450C94704C0C9422
:100090000000EF92FF920F931F937B018C0120E0F1
:1000A00030E040E05FE40E94DA1088238CF0C80161
:1000B000B70120E030E040E05FE40E94A60E0E941D
:1000C00098119B01AC01205030404040504806C080
:1000D000C801B7010E9498119B01AC01B901CA0186
:1000E0001F910F91FF90EF900895AEE5B0E0EBE720
:1000F000F0E00C94394CA8E04E010894811C911C4E
:10010000F4016A2E11926A94E9F729833A834B83AA
:100110005C836D837E838F839887CE010996FC0173
:100120001192AA95E9F7A986BA86CB86DC86ED8678
:10013000FE860F87188B29843A844B845C84ED8477
:10014000FE840F85188969807A808B809C806DA6DB
:100150007EA68FA698AA6D807E808F809884E114F9
:10016000F1040105110509F0B3C36214730484049A
:10017000950408F03DC100E0201600E0300601E0E3
:10018000400600E0500688F41FEF211631044104B8
:10019000510439F030F048E0E42EF12C012D112DFE
:1001A00018C0EE24FF24870114C020E0221620E0AE
:1001B000320620E0420621E0520630F038E1E32E1C
:1001C000F12C012D112D05C020E1E22EF12C012D85
:1001D000112DD201C1010E2C04C0B695A79597959B
:1001E00087950A94D2F7865E9E4FDC012C9180E2BF
:1001F00090E0A0E0B0E08E199F09A00BB10B7C014C
:100200008D01E21AF10801091109E114F104010557
:100210001105A1F10E2C04C0220C331C441C551CEA
:100220000A94D2F7A40193010E2C04C0220F331FAD
:10023000441F551F0A94D2F780E290E08E199F095F
:100240006DA47EA48FA498A804C0969487947794F4
:1002500067948A95D2F7622A732A842A952AADA4D4
:10026000BEA4CFA4D8A804C0AA0CBB1CCC1CDD1C07
:10027000EA94D2F7ADA6BEA6CFA6D8AA6201EE2414
:10028000FF24CDAADEAAEFAAF8AE92018101207068
:10029000307009AF1AAF2BAF3CAFC401B301A70157
:1002A00096010E94174C7B018C01C401B3012DA95A
:1002B0003EA94FA958AD0E94174CC901DA013C0173
:1002C0004D01C401B30129AD3AAD4BAD5CAD0E9407
:1002D000E44B9B01AC018701FF24EE24ADA4BEA436
:1002E000CFA4D8A8C601AA27BB2757016801A82A0E
:1002F000B92ACA2ADB2AA216B306C406D506E0F438
:1003000008946108710881089108A20CB31CC41CF0
:10031000D51CA214B304C404D50470F0A216B3060D
:10032000C406D50648F4089461087108810891084C
:10033000A20CB31CC41CD51CA21AB30AC40AD50A49
:10034000C601B5012DA93EA94FA958AD0E94174C71
:100350007B018C01C601B5012DA93EA94FA958AD5D
:100360000E94174CC901DA015C016D01C601B5019B
:1003700029AD3AAD4BAD5CAD0E94E44B9B01AC01A5
:100380008701FF24EE248DA59EA5AFA5B8A9A07076
:10039000B070E82AF92A0A2B1B2BE216F306040791
:1003A0001507C0F40894A108B108C108D108E20CEF
:1003B000F31C041D151DE214F3040405150550F08B
:1003C000E216F3060407150728F40894A108B108FB
:1003D000C108D108D3019927882786017501E82A29
:1003E000F92A0A2B1B2BE9AAFAAA0BAB1CABCFC428
:1003F000211431044104510471F461E070E080E0A3
:1004000090E020E030E040E050E00E94174CC9014D
:10041000DA011C012D0100E0201600E0300601E0A9
:10042000400600E0500688F41FEF21163104410415
:10043000510431F028F048E050E060E070E017C06F
:1004400040E050E060E070E012C020E0221620E0C2
:10045000320620E0420621E0520628F048E150E052
:1004600060E070E004C040E150E060E070E0D20184
:10047000C101042E04C0B695A795979587950A9457
:10048000D2F7865E9E4FDC012C91E0E2EE2EF12C3D
:10049000012D112DD801C701841B950BA60BB70B9D
:1004A000821B9109A109B1090097A105B10561F469
:1004B00064015301A218B308C408D50831E0632EC3
:1004C000712C812C912C1EC16F968FAF6F97082EC7
:1004D00004C0220C331C441C551C0A94D2F7EE2D88
:1004E000E81B640153010E2E04C0D694C794B79440
:1004F000A7940A94D2F7A40193016F960FAC6F975B
:1005000004C0220F331F441F551F0A94D2F76DA455
:100510007EA48FA498A80E2E04C0969487947794F6
:1005200067940A94D2F784017301E22AF32A042B18
:10053000152BE9A6FAA60BA71CA73201882499243B
:10054000920181012070307021960CAF1DAF2EAF4B
:100550003FAF2197C601B501A40193010E94174C3A
:100560007B018C01C601B501A40193010E94174CC7
:10057000C901DA0125968CAF9DAFAEAFBFAF25970D
:10058000BC01CD0121962CAD3DAD4EAD5FAD2197A7
:100590000E94E44B9B01AC018701FF24EE24A9A437
:1005A000BAA4CBA4DCA4C601AA27BB275C016D01B9
:1005B000AE28BF28C02AD12AA216B306C406D50683
:1005C00060F525966CAD7DAD8EAD9FAD25976150E4
:1005D00070408040904025966CAF7DAF8EAF9FAF4E
:1005E0002597A20CB31CC41CD51CA214B304C404CC
:1005F000D50498F0A216B306C406D50670F461506F
:1006000070408040904025966CAF7DAF8EAF9FAF1D
:100610002597A20CB31CC41CD51CA21AB30AC40A89
:10062000D50AC601B501A40193010E94174C7B01B4
:100630008C01C601B501A40193010E94174CC901A8
:10064000DA013C014D01C401B30121962CAD3DAD51
:100650004EAD5FAD21970E94E44B9B01AC01870139
:10066000FF24EE2489A59AA5ABA5BCA5A070B07007
:1006700057016801A82AB92ACA2ADB2AA216B3069A
:10068000C406D506E0F40894610871088108910851
:10069000A20CB31CC41CD51CA214B304C404D504FE
:1006A00070F0A216B306C406D50648F40894610893
:1006B000710881089108A20CB31CC41CD51C8DA51F
:1006C0009EA5AFA5B8A96F960FAC6F9704C0880F11
:1006D000991FAA1FBB1F0A94D2F78DA79EA7AFA789
:1006E000B8ABA21AB30AC40AD50A2596ECACFDAC85
:1006F0000EAD1FAD2597D70199278827682A792A3B
:100700008A2A9B2A82012227332729960CAF1DAF04
:100710002EAF3FAF2997A2019101407050702D96E6
:100720002CAF3DAF4EAF5FAF2D97C601B5012996F7
:100730002CAD3DAD4EAD5FAD29970E94174C7B01AE
:100740008C01C601B50129962CAD3DAD4EAD5FAD16
:1007500029970E94174CC901DA0161968CAF9DAFB1
:10076000AEAFBFAF6197BC01CD012D962CAD3DADB5
:100770004EAD5FAD2D970E94E44B9B01AC0187010C
:10078000FF24EE24ADA4BEA4CFA4D8A8C601AA27F6
:10079000BB2757016801A82AB92ACA2ADB2AA21650
:1007A000B306C406D50660F561966CAD7DAD8EAD21
:1007B0009FAD6197615070408040904061966CAFF2
:1007C0007DAF8EAF9FAF6197A20CB31CC41CD51C2C
:1007D000A214B304C404D50498F0A216B306C40648
:1007E000D50670F4615070408040904061966CAFC7
:1007F0007DAF8EAF9FAF6197A20CB31CC41CD51CFC
:10080000A21AB30AC40AD50AC601B50129962CADAD
:100810003DAD4EAD5FAD29970E94174C7B018C0119
:10082000C601B50129962CAD3DAD4EAD5FAD299702
:100830000E94174CC901DA015C016D01C601B501C6
:100840002D962CAD3DAD4EAD5FAD2D970E94E44B86
:100850009B01AC018701FF24EE248DA59EA5AFA5C9
:10086000B8A9A070B070E82AF92A0A2B1B2BE2164F
:10087000F30604071507C0F40894A108B108C108DD
:10088000D108E20CF31C041D151DE214F304040549
:10089000150550F0E216F3060407150728F408942E
:1008A000A108B108C108D1086196ECACFDAC0EAD51
:1008B0001FAD6197D7019927882796018501082BDD
:1008C000192B2A2B3B2B09AB1AAB2BAB3CAB62C2CF
:1008D0006E147F048006910608F451C220E0E216EF
:1008E00020E0F20621E0020720E0120788F43FEF43
:1008F000E316F1040105110531F028F048E050E05D
:1009000060E070E017C040E050E060E070E012C0CE
:1009100040E0E41640E0F40640E0040741E014073C
:1009200028F048E150E060E070E004C040E150E0B1
:1009300060E070E0D801C701042E04C0B695A79509
:10094000979587950A94D2F7865E9E4FDC012C918D
:1009500030E2A32EB12CC12CD12CD601C501841BB1
:10096000950BA60BB70B821B9109A109B109009742
:10097000A105B10589F4E614F7040805190508F482
:10098000F2C16DA47EA48FA498A862147304840499
:10099000950408F0E8C1F3C16E968FAF6E97082EEC
:1009A00004C0EE0CFF1C001F111F0A94D2F76A2D21
:1009B000681BD201C101062E04C0B695A795979574
:1009C00087950A94D2F75C016D01AE28BF28C02A32
:1009D000D12AADA2BEA2CFA2D8A6720161016E96A5
:1009E0000FAC6E9704C0CC0CDD1CEE1CFF1C0A94EF
:1009F000D2F7C9A2DAA2EBA2FCA264015301062E2F
:100A000004C0D694C794B794A7940A94D2F7D4019B
:100A1000C3016E960FAC6E9704C0880F991FAA1F72
:100A2000BB1F0A94D2F7EDA4FEA40FA518A904C019
:100A300016950795F794E7946A95D2F73701480120
:100A4000682A792A8A2A9B2A6D8E7E8E8F8E98A29A
:100A5000EDA0FEA00FA118A53801882499249801C3
:100A600087012070307065960CAF1DAF2EAF3FAF81
:100A70006597C601B501A40193010E94174C7B0143
:100A80008C01C601B501A40193010E94174CC90154
:100A9000DA011C012D01C201B10165962CAD3DADFD
:100AA0004EAD5FAD65970E94E44B9B01AC018701A1
:100AB000FF24EE24AD8CBE8CCF8CD8A0C601AA2713
:100AC000BB2757016801A82AB92ACA2ADB2AA2161D
:100AD000B306C406D50600F508942108310841087C
:100AE0005108EDA0FEA00FA118A5AE0CBF1CC01EA2
:100AF000D11EAE14BF04C006D10670F0A216B30614
:100B0000C406D50648F40894210831084108510864
:100B1000AE0CBF1CC01ED11EA21AB30AC40AD50A4D
:100B2000C601B501A40193010E94174C7B018C0101
:100B3000C601B501A40193010E94174CC901DA0155
:100B40003C014D01C401B30165962CAD3DAD4EADE8
:100B50005FAD65970E94E44B9B01AC018701FF24C8
:100B6000EE248D8D9E8DAF8DB8A1A070B070570111
:100B70006801A82AB92ACA2ADB2AA216B306C40623
:100B8000D50600F5089461087108810891086DA1E7
:100B90007EA18FA198A5A60EB71EC81ED91EA616A7
:100BA000B706C806D90670F0A216B306C406D50665
:100BB00048F408946108710881089108A60EB71ED0
:100BC000C81ED91ED601C501821B930BA40BB50B01
:100BD000898F9A8FAB8FBC8FD101992788276401A9
:100BE0005301A82AB92ACA2ADB2AA9AABAAACBAAD7
:100BF000DCAA860175012FEF3FEF40E050E0E222D2
:100C0000F32204231523A601662777276D964CAFA0
:100C10005DAF6EAF7FAF6D97A9A0BAA0CBA0DCA0EF
:100C20006FEF7FEF80E090E0A622B722C822D922A2
:100C300089A19AA1ABA1BCA11D0144245524C801DE
:100C4000B701A60195010E94E44B69966CAF7DAF98
:100C50008EAF9FAF6997C801B701A20191010E94B1
:100C6000E44B3B014C016D966CAD7DAD8EAD9FADFF
:100C70006D97A60195010E94E44B7B018C016D9656
:100C80006CAD7DAD8EAD9FAD6D97A20191010E94BF
:100C9000E44B5B016C01A8019701260D371D481D2F
:100CA000591D69966CAC7DAC8EAC9FAC6997C40144
:100CB000AA27BB27280F391F4A1F5B1F2E153F0588
:100CC0004007510748F4E12CF12C61E0062F112D6B
:100CD000AE0CBF1CC01ED11ECA01AA27BB27BC0177
:100CE000CD016A0D7B1D8C1D9D1D698C7A8C8B8CB2
:100CF0009C8C661677068806990640F1661577057E
:100D00008805990509F043C0D90199278827699674
:100D10002CAD3DAD4EAD5FAD699740705070820F08
:100D2000931FA41FB51F2DA53EA54FA558A96E96CC
:100D30000FAC6E9704C0220F331F441F551F0A9437
:100D4000D2F7281739074A075B0708F509A91AA936
:100D50002BA93CA9015010402040304009AB1AABF0
:100D60002BAB3CAB14C066247724430121E030E078
:100D700040E050E029AB3AAB4BAB5CAB0BC0662418
:100D80007724430119AA1AAA1BAA1CAA03C0662425
:100D900077244301FE01719688E0DF011D928A9558
:100DA000E9F7A9A8BAA8CBA8DCA8A98ABA8ACB8AED
:100DB000DC8A6D8A7E8A8F8A988E29A93A894B8926
:100DC0005C89662D7E898F89988DC25ADF4FE2E15A
:100DD0000C94554CABE5B0E0E0EFF6E00C94394CE8
:100DE000A8E04E010894811C911CF4016A2E119216
:100DF0006A94E9F729833A834B835C836D837E830E
:100E00008F839887CE010996FC011192AA95E9F784
:100E1000A986BA86CB86DC86ED86FE860F87188B80
:100E200029843A844B845C84AD84BE84CF84D88882
:100E300029813A814B815C8169962FAF69976A96C7
:100E40003FAF6A976B964FAF6B976C965FAF6C979F
:100E50006C966CAC7DAC8EAC9FAC6C9769AA7AAA90
:100E60008BAA9CAA6D817E818F8198853B014C0164
:100E70006DAA7EAA8FAA98AEA114B104C104D104B0
:100E800009F004C3621473048404950408F000C1DB
:100E900000E0201600E0300601E0400600E05006C9
:100EA00088F41FEF211631044104510439F030F069
:100EB00088E0E82EF12C012D112D18C0EE24FF241E
:100EC000870114C040E0241640E0340640E04406A8
:100ED00041E0540630F0B8E1EB2EF12C012D112D3C
:100EE00005C0A0E1EA2EF12C012D112DD201C10186
:100EF0000E2C04C0B695A795979587950A94D2F7BE
:100F0000865E9E4FDC012C9180E290E0A0E0B0E094
:100F10008E199F09A00BB10B5C016D01A21AB108DB
:100F2000C108D108A9AEBAAECBAEDCAEA114B104F3
:100F3000C104D10409F43FC069AD062E04C0220CDF
:100F4000331C441C551C0A94D2F7A4019301062EAD
:100F500004C0220F331F441F551F0A94D2F780E2AA
:100F600090E08A199B096C96CCACDDACEEACFFAC82
:100F70006C9704C0F694E794D794C7948A95D2F7F7
:100F800087017601E22AF32A042B152BEDAAFEAA8B
:100F90000FAB18AF6C968CAD9DADAEADBFAD6C9781
:100FA00004C0880F991FAA1FBB1F6A95D2F789AB8F
:100FB0009AABABABBCAB320188249924B201A1013E
:100FC0006070707021964CAF5DAF6EAF7FAF2197B0
:100FD0006DA97EA98FA998ADA40193010E94174C19
:100FE0007B018C016DA97EA98FA998ADA401930105
:100FF0000E94174CCA01B90121962CAD3DAD4EADF2
:101000005FAD21970E94E44B9B01AC018701FF2457
:10101000EE24A9A8BAA8CBA8DCA8C601AA27BB279A
:1010200057016801A82AB92ACA2ADB2AA216B306E0
:10103000C406D50690F4A20CB31CC41CD51CA21483
:10104000B304C404D50448F0A216B306C406D506FA
:1010500020F4A20CB31CC41CD51CA21AB30AC40AE7
:10106000D50AC601B501A40193010E94174C7B016A
:101070008C01C601B501A40193010E94174CCA015D
:10108000B90121962CAD3DAD4EAD5FAD2197BAC1F2
:10109000211431044104510471F461E070E080E0F6
:1010A00090E020E030E040E050E00E94174CC901A1
:1010B000DA011C012D0100E0201600E0300601E0FD
:1010C000400600E0500688F41FEF21163104410469
:1010D000510439F030F068E0E62EF12C012D112D8D
:1010E00018C0EE24FF24870114C040E0241640E01D
:1010F000340640E0440641E0540630F058E1E52E65
:10110000F12C012D112D05C040E1E42EF12C012D13
:10111000112DD201C1010E2C04C0B695A79597954B
:1011200087950A94D2F7865E9E4FDC012C9130E2BF
:10113000A32EB12CC12CD12CD601C5018E199F092B
:10114000A00BB10B7C018D01E21AF1080109110914
:10115000E9AEFAAE0BAF1CAFE114F10401051105C5
:1011600039F464015301A218B308C408D508E2C0D9
:10117000F9AC6896FFAE68970F2C04C0220C331CA4
:10118000441C551C0A94D2F78A2D8F19640153010F
:10119000082E04C0D694C794B794A7940A94D2F7A3
:1011A000A401930104C0220F331F441F551FFA945A
:1011B000D2F76C966CAC7DAC8EAC9FAC6C9704C0D7
:1011C00096948794779467948A95D2F784017301F3
:1011D000E22AF32A042B152BEDA6FEA60FA718ABC7
:1011E000320188249924B201A101607070702596A3
:1011F0004CAF5DAF6EAF7FAF2597C601B501A401BF
:1012000093010E94174C7B018C01C601B501A4011A
:1012100093010E94174CCA01B90125962CAD3DAD32
:101220004EAD5FAD25970E94E44B9B01AC01870159
:10123000FF24EE24ADA4BEA4CFA4D8A8C601AA273B
:10124000BB275C016D01AE28BF28C02AD12AA21697
:10125000B306C406D50690F4A20CB31CC41CD51C5E
:10126000A214B304C404D50448F0A216B306C406FD
:10127000D50620F4A20CB31CC41CD51CA21AB30AB8
:10128000C40AD50AC601B501A40193010E94174CF6
:101290007B018C01C601B501A40193010E94174C8A
:1012A000CA01B90125962CAD3DAD4EAD5FAD259778
:1012B0000E94E44B9B01AC018701FF24EE248DA525
:1012C0009EA5AFA5B8A9A070B07057016801A82A63
:1012D000B92ACA2ADB2AA216B306C406D50690F498
:1012E000A20CB31CC41CD51CA214B304C404D504A2
:1012F00048F0A216B306C406D50620F4A20CB31C0F
:10130000C41CD51C6C96ECACFDAC0EAD1FAD6C973F
:1013100068960FAC689704C0EE0CFF1C001F111FED
:101320000A94D2F7E9AAFAAA0BAB1CABA21AB30A29
:10133000C40AD50A320188249924B201A10160703F
:10134000707029964CAF5DAF6EAF7FAF2997C60125
:10135000B501A40193010E94174C7B018C01C601C9
:10136000B501A40193010E94174CCA01B901299645
:101370002CAD3DAD4EAD5FAD29970E94E44B9B0176
:10138000AC018701FF24EE24A9A8BAA8CBA8DCA849
:10139000C601AA27BB2757016801A82AB92ACA2A69
:1013A000DB2AA216B306C406D50690F4A20CB31C21
:1013B000C41CD51CA214B304C404D50448F0A2165E
:1013C000B306C406D50620F4A20CB31CC41CD51C5D
:1013D000A21AB30AC40AD50AC601B501A401930131
:1013E0000E94174C7B018C01C601B501A401930139
:1013F0000E94174CCA01B90129962CAD3DAD4EADE6
:101400005FAD29970E94E44B9B01AC018701FF244B
:10141000EE2489A99AA9ABA9BCA9A070B070E82A4A
:10142000F92A0A2B1B2BE216F3060407150790F482
:10143000E20CF31C041D151DE214F304040515054C
:1014400048F0E216F3060407150720F4E20CF31C3B
:10145000041D151DE21AF30A040B150BD801C70170
:1014600009AC04C0B695A795979587950A94D2F7CD
:10147000898B9A8BAB8BBC8B1D8A1E8A1F8A188E18
:10148000282F3A894B895C896D890CC36A147B04C7
:101490008C049D0408F409C300E0A01600E0B00627
:1014A00001E0C00600E0D00688F41FEFA116B104E9
:1014B000C104D10439F030F028E0E22EF12C012DE6
:1014C000112D18C0EE24FF24870114C040E0A4169B
:1014D00040E0B40640E0C40641E0D40630F098E1B4
:1014E000E92EF12C012D112D05C080E1E82EF12C03
:1014F000012D112DD601C5010E2C04C0B695A7955E
:10150000979587950A94D2F7865E9E4FDC012C91C1
:1015100080E290E0A0E0B0E08E199F09A00BB10B33
:10152000821B9109A109B1090097A105B10509F034
:101530004FC0A614B704C804D90458F06C96ECAC9C
:10154000FDAC0EAD1FAD6C97E214F3040405150558
:1015500068F16C96ECACFDAC0EAD1FAD6C97E2186B
:10156000F30804091509A40193012A193B094C0940
:101570005D09AA24BB2465016C966CAD7DAD8EAD72
:101580009FAD6C976E157F058007910728F4B1E039
:10159000AB2EB12CC12CD12CDA01C9018A199B09BF
:1015A000AC09BD098DAB9EABAFABB8AFE98AFA8A87
:1015B0000B8B1C8B6DA87EA88FA898AC6D8A7E8A39
:1015C0008F8A988E2E2D3A894B895C896DA96AC2C3
:1015D00067968FAF6797A6019501082E04C0220F6A
:1015E000331F441F551F0A94D2F7A0E2AA2EA81A4F
:1015F0006696AFAE6697D201C10104C0B695A795B5
:1016000097958795AA94D2F76C017D01C22AD32AB7
:10161000E42AF52AC9A6DAA6EBA6FCA68201710186
:1016200067960FAC679704C0EE0CFF1C001F111FDC
:101630000A94D2F7EDA2FEA20FA318A764015301EA
:1016400066960FAC669704C0D694C794B794A794D7
:101650000A94D2F7A401930167960FAC679704C070
:10166000220F331F441F551F0A94D2F76C968CAD7E
:101670009DADAEADBFAD6C9766960FAC669704C0DE
:10168000B695A795979587950A94D2F73C014D0199
:10169000622A732A842A952A69A27AA28BA29CA222
:1016A0006C96ECACFDAC0EAD1FAD6C9767960FACB5
:1016B000679704C0EE0CFF1C001F111F0A94D2F79D
:1016C000ED8EFE8E0F8F18A349A55AA56BA57CA59C
:1016D0003B0188249924607070702D964CAF5DAFEB
:1016E0006EAF7FAF2D97C601B501A40193010E9493
:1016F000174C7B018C01C601B501A40193010E9426
:10170000174CC901DA011C012D01C201B1012D964E
:101710002CAD3DAD4EAD5FAD2D970E94E44B9B01CE
:10172000AC018701FF24EE24A9A0BAA0CBA0DCA0C5
:10173000C601AA27BB2757016801A82AB92ACA2AC5
:10174000DB2AA216B306C406D50600F508942108C4
:10175000310841085108E9A4FAA40BA51CA5AE0C58
:10176000BF1CC01ED11EAE14BF04C006D10670F04F
:10177000A216B306C406D50648F408942108310819
:1017800041085108AE0CBF1CC01ED11EA21AB30ADC
:10179000C40AD50AC601B501A40193010E94174CE1
:1017A0007B018C01C601B501A40193010E94174C75
:1017B000C901DA013C014D01C401B3012D962CADE4
:1017C0003DAD4EAD5FAD2D970E94E44B9B01AC014A
:1017D0008701FF24EE2489A19AA1ABA1BCA1A0702E
:1017E000B07057016801A82AB92ACA2ADB2AA216B2
:1017F000B306C406D50600F508946108710881088F
:10180000910869A57AA58BA59CA5A60EB71EC81E32
:10181000D91EA616B706C806D90670F0A216B306DA
:10182000C406D50648F40894610871088108910837
:10183000A60EB71EC81ED91ED601C501821B930B6A
:10184000A40BB50B898F9A8FAB8FBC8FD1019927D1
:10185000882784017301E82AF92A0A2B1B2B4FEFF2
:10186000A42E4FEFB42EC12CD12CAE20BF20C0220D
:10187000D1227801002711276DA07EA08FA098A407
:101880004FEF5FEF60E070E06422752286229722BE
:101890008DA19EA1AFA1B8A5BD0188279927659606
:1018A0006CAF7DAF8EAF9FAF6597C601B501A40148
:1018B00093010E94E44B61966CAF7DAF8EAF9FAFFA
:1018C0006197C601B50165962CAD3DAD4EAD5FADDE
:1018D00065970E94E44B1B012C01C801B701A401CC
:1018E00093010E94E44B5B016C01C801B70165964E
:1018F0002CAD3DAD4EAD5FAD65970E94E44B7B01D5
:101900008C01A6019501220D331D441D551D6196C4
:101910006CAC7DAC8EAC9FAC6197C401AA27BB2791
:10192000280F391F4A1F5B1F2A153B054C055D0513
:1019300048F4812C912CE1E0AE2EB12CE80CF91C7E
:101940000A1D1B1DCA01AA27BB2757016801A80E43
:10195000B91ECA1EDB1EA9013327222761968CAD52
:101960009DADAEADBFAD6197A070B070280F391FAF
:101970004A1F5B1FE98CFA8C0B8D1C8DEA14FB044B
:101980000C051D0570F0AE14BF04C006D10669F544
:101990006D8D7E8D8F8D98A16217730784079507D3
:1019A00020F5DA01C9016DA07EA08FA098A4861948
:1019B0009709A809B909E9A4FAA40BA51CA5AE18B2
:1019C000BF08C00AD10AEE24FF248701281739076F
:1019D0004A075B0728F421E0E22EF12C012D112D9E
:1019E000AE18BF08C00AD10A02C0DA01C9016D8C65
:1019F0007E8C8F8C98A0681A790A8A0A9B0A498D76
:101A00005A8D6B8D7C8D4A195B096C097D095A01D1
:101A10006B012224332421016D8D7E8D8F8D98A141
:101A2000661577058805990528F481E0282E312C64
:101A3000412C512C86017501E218F308040915099F
:101A4000A801970166960FAC669704C0220F331F5A
:101A5000441F551F0A94D2F7D401C30167960FACF7
:101A6000679704C0B695A795979587950A94D2F77E
:101A7000282B392B4A2B5B2B298B3A8B4B8B5C8B7E
:101A800067960FAC679704C016950795F794E7948F
:101A90000A94D2F7ED8AFE8A0F8B188F3A894B8908
:101AA0005C896E2D7E898F89988DC55ADF4FE2E162
:101AB0000C94554CA0E0B0E0E0E6FDE00C94394C0D
:101AC000DC012B01FA019C91923008F439C1EB0141
:101AD0008881823008F433C1943069F4843009F08D
:101AE0002FC111969C9111978981981709F428C1EB
:101AF000A2E1B1E025C1843009F421C18230A9F40A
:101B0000923009F01DC19A01AD0188E0EA01099007
:101B1000AE01E90109929E018150C1F7E20189817C
:101B200011969C918923818308C1923009F407C1E1
:101B300012962D903C901397EB018A819B8114960D
:101B4000AD90BD90CD90DC901797EC80FD800E811C
:101B50001F819101281B390BB90137FF04C066278B
:101B60007727621B730B603271050CF061C012168F
:101B700013066CF537014801062E04C0969487942D
:101B8000779467940A94D2F721E030E040E050E087
:101B900004C0220F331F441F551F6A95D2F72150EE
:101BA0003040404050402E213F21402351232115F9
:101BB00031054105510521F021E030E040E050E0E1
:101BC00079018A01E628F728082919293CC0232B26
:101BD000D1F1260E371E35014601062E04C096941B
:101BE0008794779467940A94D2F721E030E040E03C
:101BF00050E004C0220F331F441F551F6A95D2F7CF
:101C000021503040404050402A213B214C215D2151
:101C1000211531054105510521F021E030E040E07A
:101C200050E059016A01A628B728C828D9280BC056
:101C3000821593052CF01C01AA24BB24650103C066
:101C4000EE24FF24870111969C91D20111968C916C
:101C5000981709F445C0992339F0A80197012A196A
:101C60003B094C095D0906C0A60195012E193F09E3
:101C7000400B510B57FD08C011823382228224830E
:101C80003583468357831DC081E08183338222825E
:101C900088279927DC01821B930BA40BB50B848347
:101CA0009583A683B7830DC0220F331F441F551F92
:101CB000248335834683578382819381019793835D
:101CC00082832481358146815781DA01C9010197D8
:101CD000A109B1098F5F9F4FAF4FBF4328F30BC0DE
:101CE000918333822282EA0CFB1C0C1D1D1DE482B1
:101CF000F5820683178383E08083248135814681C2
:101D0000578157FF1AC0C901AA2797FDA095BA2F7E
:101D100081709070A070B070569547953795279553
:101D2000822B932BA42BB52B84839583A683B78317
:101D300082819381019693838283DF0101C0D20166
:101D4000CD01CDB7DEB7E2E10C94554CA0E2B0E096
:101D5000ECEAFEE00C94454C69837A838B839C8388
:101D60002D833E834F835887E9E0EE2EF12CEC0E55
:101D7000FD1ECE010196B7010E9489138E010F5EF0
:101D80001F4FCE010596B8010E9489138A8991E000
:101D900089278A8BC701B801AE01475E5F4F0E9459
:101DA0005A0D0E94B412A096E6E00C94614CA0E299
:101DB000B0E0EDEDFEE00C94454C69837A838B83B3
:101DC0009C832D833E834F835887F9E0EF2EF12CBF
:101DD000EC0EFD1ECE010196B7010E9489138E0103
:101DE0000F5E1F4FCE010596B8010E948913C701EF
:101DF000B801AE01475E5F4F0E945A0D0E94B412B7
:101E0000A096E6E00C94614CA0E2B0E0EAE0FFE0CE
:101E10000C94394C69837A838B839C832D833E8316
:101E20004F835887CE010196BE01675F7F4F0E94A6
:101E30008913CE010596BE016F5E7F4F0E94891304
:101E40009985923088F089898230C8F0943019F4ED
:101E5000823051F404C0843029F4923081F482E15C
:101E600091E0C6C0923049F420E09A858A8998139F
:101E700021E02A87CE010996BBC0823049F420E0D8
:101E80009A858A89981321E02A8BCE014196B0C0A9
:101E90002D843E844F8458886D887E888F88988CE6
:101EA000EE24FF248701AA24BB24650140E050E012
:101EB00060E070E0E0E0F0E0C10181709070892B9B
:101EC000E9F0E60CF71C081D191D9A01AB012A0D5B
:101ED0003B1D4C1D5D1D80E090E0A0E0B0E0E614ED
:101EE000F7040805190520F481E090E0A0E0B0E0D7
:101EF000BA01A901480F591F6A1F7B1FAA0CBB1CFE
:101F0000CC1CDD1C97FE08C081E090E0A0E0B0E0B2
:101F1000A82AB92ACA2ADB2A3196E032F10549F00B
:101F2000660C771C881C991C569447943794279408
:101F3000C3CFFA85EA892B893C898B859C85280F3C
:101F4000391F2E5F3F4F17C0CA0181709070892BD7
:101F500061F016950795F794E79480E090E0A0E093
:101F6000B0E8E82AF92A0A2B1B2B76956795579536
:101F700047952F5F3F4F77FDE7CF0CC0440F551FAC
:101F8000661F771F17FD4160EE0CFF1C001F111F1D
:101F900021503040403090E0590790E0690790E4CC
:101FA000790760F32B8F3C8FDB01CA018F7790702C
:101FB000A070B07080349105A105B10561F447FDB2
:101FC0000AC0E114F1040105110529F0405C5F4FDE
:101FD0006F4F7F4F40781A8EFE1711F081E08A8F85
:101FE0004D8F5E8F6F8F78A383E0898FCE014996E6
:101FF0000E94B412A096E2E10C94554CA8E1B0E026
:10200000E4E0F0E10C94414C69837A838B839C83F8
:102010002D833E834F835887B9E0EB2EF12CEC0ED5
:10202000FD1ECE010196B7010E9489138E010F5E3D
:102030001F4FCE010596B8010E94891329852230D1
:1020400008F47EC03989323010F4B8017CC08A852A
:102050009A8989278A87243011F0223031F4231796
:1020600009F06EC062E171E06EC0343039F41D8653
:102070001E861F86188A1C861B8604C0323021F4F7
:1020800084E08987B7015FC02B853C858B899C895B
:10209000281B390B3C872B87ED84FE840F8518891C
:1020A000AD88BE88CF88D88CEA14FB040C051D05CA
:1020B00040F4EE0CFF1C001F111F215030403C87E4
:1020C0002B8720E030E040E050E080E090E0A0E0AE
:1020D000B0E460E070E0EA14FB040C051D0540F07C
:1020E000282B392B4A2B5B2BEA18FB080C091D09FE
:1020F000B695A79597958795EE0CFF1C001F111FAD
:102100006F5F7F4F6F31710531F7DA01C9018F774A
:102110009070A070B07080349105A105B10561F494
:1021200027FD0AC0E114F1040105110529F0205C26
:102130003F4F4F4F5F4F20782D873E874F87588BFB
:10214000BE01675F7F4FCB010E94B4126896EAE040
:102150000C945D4CA8E1B0E0E0EBF0E10C94454C50
:1021600069837A838B839C832D833E834F83588737
:1021700089E0E82EF12CEC0EFD1ECE010196B70190
:102180000E9489138E010F5E1F4FCE010596B80184
:102190000E9489138985823040F08989823028F035
:1021A000C701B8010E94011401C08FEF6896E6E0F4
:1021B0000C94614CA8E1B0E0E0EEF0E10C94454CE9
:1021C00069837A838B839C832D833E834F835887D7
:1021D00089E0E82EF12CEC0EFD1ECE010196B70130
:1021E0000E9489138E010F5E1F4FCE010596B80124
:1021F0000E9489138985823040F08989823028F0D5
:10220000C701B8010E94011401C08FEF6896E6E093
:102210000C94614CA8E1B0E0E0E1F1E10C94454C94
:1022200069837A838B839C832D833E834F83588776
:1022300089E0E82EF12CEC0EFD1ECE010196B701CF
:102240000E9489138E010F5E1F4FCE010596B801C3
:102250000E9489138985823040F08989823028F074
:10226000C701B8010E94011401C081E06896E6E050
:102270000C94614CA8E0B0E0E0E4F1E10C94424C35
:102280009B01AC0183E08983DA01C9018827B7FD8E
:1022900083959927AA27BB27B82E2115310541051B
:1022A000510519F482E089833AC08823A9F02030CF
:1022B00080E0380780E0480780E8580729F460E0AC
:1022C00070E080E09FEC30C0EE24FF248701E21A2A
:1022D000F30A040B150B02C079018A018EE1C82EA6
:1022E000D12CDC82CB82ED82FE820F831887C8015D
:1022F000B7010E94651201971816190684F4082E7A
:1023000004C0EE0CFF1C001F111F0A94D2F7ED82CF
:10231000FE820F831887C81AD90ADC82CB82BA8260
:10232000CE0101960E94B4122896E9E00C945E4C0E
:10233000ACE0B0E0EEE9F1E10C94494C69837A83BA
:102340008B839C83CE010196BE016B5F7F4F0E9401
:1023500089138D81823061F1823050F1843021F413
:102360008E81882351F12EC02F81388537FD20C002
:102370006E812F3131051CF06623F9F023C08EE108
:1023800090E0821B930B29853A854B855C8504C0C0
:1023900056954795379527958A95D2F76623B1F0DC
:1023A00050954095309521953F4F4F4F5F4F0EC050
:1023B00020E030E040E050E009C02FEF3FEF4FEF6A
:1023C0005FE704C020E030E040E050E8B901CA0116
:1023D0002C96E2E00C94654CA8E0B0E0E2EFF1E16D
:1023E0000C94414C7B018C016115710581059105AF
:1023F00019F482E0898360C083E089838EE1C82E6E
:10240000D12CDC82CB82ED82FE820F831887C8013B
:10241000B7010E946512FC013197F7FF3BC02227EC
:1024200033272E1B3F0B57016801022E04C0D694A0
:10243000C794B794A7940A94D2F740E050E060E0C4
:1024400070E081E090E0A0E0B0E004C0880F991F48
:10245000AA1FBB1F2A95D2F70197A109B1098E21A6
:102460009F21A023B1230097A105B10521F041E0F0
:1024700050E060E070E04A295B296C297D294D839A
:102480005E836F8378878EE190E08E1B9F0B9C8329
:102490008B8312C0309781F00E2E04C0EE0CFF1C0F
:1024A000001F111F0A94D2F7ED82FE820F83188756
:1024B000CE1ADF0ADC82CB821A82CE0101960E94FC
:1024C000B4122896EAE00C945D4CEF92FF920F93C1
:1024D0001F937B018C0180E0E81680E0F80681E024
:1024E000080780E0180788F48FEFE816F10401056B
:1024F000110531F028F088E090E0A0E0B0E017C0CE
:1025000080E090E0A0E0B0E012C080E0E81680E05B
:10251000F80680E0080781E0180728F088E190E0DD
:10252000A0E0B0E004C080E190E0A0E0B0E020E2F4
:1025300030E040E050E0281B390B4A0B5B0B04C035
:1025400016950795F794E7948A95D2F7F701E65E1A
:10255000FE4F8081281B310941095109C9011F9192
:102560000F91FF90EF900895DF92EF92FF920F93FB
:102570001F93FC01E480F58006811781D180808162
:10258000823048F480E090E0A0E1B0E0E82AF92A47
:102590000A2B1B2BA5C0843009F49FC0823021F484
:1025A000EE24FF24870105C0E114F10401051105A3
:1025B00019F4E0E0F0E096C0628173819FEF623829
:1025C00079070CF05BC022E83FEF261B370B2A315E
:1025D00031052CF020E030E040E050E02AC0B801A6
:1025E000A701022E04C076956795579547950A94E2
:1025F000D2F781E090E0A0E0B0E004C0880F991F1E
:10260000AA1FBB1F2A95D2F70197A109B1098E21F4
:102610009F21A023B1230097A105B10521F081E0FE
:1026200090E0A0E0B0E09A01AB01282B392B4A2BB7
:102630005B2BDA01C9018F779070A070B070803485
:102640009105A105B10539F427FF09C0205C3F4F72
:102650004F4F5F4F04C0215C3F4F4F4F5F4FE0E053
:10266000F0E02030A0E03A07A0E04A07A0E45A07D3
:1026700010F0E1E0F0E079018A0127C060387105CF
:1026800064F5FB01E158FF4FD801C7018F779070C7
:10269000A070B07080349105A105B10539F4E7FE52
:1026A0000DC080E490E0A0E0B0E004C08FE390E0D3
:1026B000A0E0B0E0E80EF91E0A1F1B1F17FF05C0BF
:1026C00016950795F794E794319687E01695079548
:1026D000F794E7948A95D1F705C0EE24FF2487018B
:1026E000EFEFF0E06E2F679566276795902F9F7745
:1026F000D794DD24D7948E2F8695492F462B582FBB
:102700005D29B701CA011F910F91FF90EF90DF90F3
:102710000895FC01DB01408151812281622F6F7796
:1027200070E0221F2227221F9381892F880F822B7E
:10273000282F30E0991F9927991F11969C93119784
:1027400021153105A9F5411551056105710511F4F2
:1027500082E037C082E89FEF13969C938E93129786
:102760009A01AB0167E0220F331F441F551F6A9582
:10277000D1F783E08C930DC0220F331F441F551FE8
:1027800012968D919C911397019713969C938E931B
:102790001297203080E0380780E0480780E458072F
:1027A00058F314962D933D934D935C93179708958A
:1027B0002F3F310579F4411551056105710519F473
:1027C00084E08C93089564FF03C081E08C9312C071
:1027D0001C9210C02F57304013963C932E931297A3
:1027E00083E08C9387E0440F551F661F771F8A95FF
:1027F000D1F7706414964D935D936D937C93179706
:1028000008951F93DC01FB019C91923008F447C0AE
:102810008081823008F443C0943051F411961C91A9
:10282000843099F58181682F70E0611B71093FC088
:10283000843021F0923031F48230B9F181818823E3
:1028400089F12DC011961C9111978230F1F0818190
:102850001817D9F412962D913C9113978281938188
:102860008217930794F028173907BCF014968D91BE
:102870009D910D90BC91A02D248135814681578179
:10288000281739074A075B0718F4112341F00AC0DB
:1028900082179307A407B50740F4112319F061E0EC
:1028A00070E005C06FEF7FEF02C060E070E0CB0129
:1028B0001F910895DF93CF93CDB7DEB7A7E2B0E0C5
:1028C000E7E2F0E0808180648C93A7E2B0E0E7E289
:1028D000F0E080818F778C93A7E2B0E0E7E2F0E050
:1028E00080818F7D8C93A6E2B0E0E6E2F0E080810B
:1028F000887F8C93A6E2B0E0E6E2F0E0808187601A
:102900008C93A6E2B0E0E6E2F0E0808180688C93F0
:10291000A6E2B0E0E6E2F0E080818F7D8C93A6E253
:10292000B0E0E6E2F0E08081877F8C93CF91DF9189
:102930000895DF93CF93CDB7DEB728970FB6F894FD
:10294000DEBF0FBECDBF8E8378876F8381E08D831E
:1029500019821A821B821C8280914502882309F009
:1029600067C081E080934502A7E2B0E0E7E2F0E0D3
:102970008081807E8C93A7E2B0E0E7E2F0E0908176
:102980008E81892B8C93A6E2B0E0E6E2F0E08081B4
:1029900080648C930BC089819A81AB81BC81019644
:1029A000A11DB11D89839A83AB83BC83E6E2F0E06D
:1029B000808182958F70882F90E081709070009751
:1029C00061F489819A81AB81BC81803523EC9207C7
:1029D00020E0A20720E0B207F1F689819A81AB815D
:1029E000BC81803523EC920720E0A20720E0B207EB
:1029F00019F483E08D831EC0A6E2B0E0E6E2F0E0C9
:102A0000808180618C93E4E2F0E08081282F30E0C7
:102A1000E5E2F0E08081882F90E0982F8827822BD4
:102A2000932BEF81F885918380831092450202C039
:102A300085E08D838D8128960FB6F894DEBF0FBE9A
:102A4000CDBFCF91DF910895DF93CF9300D000D019
:102A500000D0CDB7DEB78A837C836B835E834D83E2
:102A600081E08983809145028823C9F58B819C810F
:102A7000009721F08D819E81009711F4198231C059
:102A800081E080934502109247028B819C81909354
:102A90003D0280933C028D819E8190933F02809302
:102AA0003E02A7E2B0E0E7E2F0E08081807E8C9316
:102AB000A7E2B0E0E7E2F0E090818A81892B8C9375
:102AC000A6E2B0E0E6E2F0E0808180648C93A6E2CA
:102AD000B0E0E6E2F0E0808188608C9302C085E09F
:102AE0008983898126960FB6F894DEBF0FBECDBFCD
:102AF000CF91DF910895DF93CF9300D00F92CDB7A0
:102B0000DEB79B838A8381E089838A819B810097DA
:102B100011F4198255C080914502882309F04EC0F6
:102B200081E08093450281E080934702EA81FB8146
:102B3000808191819093410280934002EA81FB81E0
:102B4000828193819093430280934202EA81FB81C8
:102B5000848180934602EA81FB81858196819093EE
:102B60003F0280933E0210924402A7E2B0E0E7E207
:102B7000F0E08081807E8C93A7E2B0E0E7E2F0E0B5
:102B80004081209140023091410280914402882F7F
:102B900090E0F901E80FF91F8081842B8C93A6E265
:102BA000B0E0E6E2F0E0808180648C93A6E2B0E0E1
:102BB000E6E2F0E0808188608C9302C085E0898342
:102BC00089810F900F900F90CF91DF9108951F9200
:102BD0000F920FB60F9211242F933F934F935F9351
:102BE0006F937F938F939F93AF93BF93EF93FF93D5
:102BF000DF93CF93CDB7DEB780914702882319F5D5
:102C0000A0913C02B0913D02E4E2F0E08081282FE7
:102C100030E0E5E2F0E08081882F90E0982F88276F
:102C2000822B932B8D939C9310924502E0913E0250
:102C3000F0913F020995A6E2B0E0E6E2F0E0808183
:102C4000877F8C935EC080914702813009F059C024
:102C5000209142023091430280914402882F90E0FB
:102C6000880F991FD901A80FB91FE4E2F0E0808115
:102C7000282F30E0E5E2F0E08081882F90E0982F67
:102C80008827822B932B11969C938E9380914402DC
:102C90008F5F80934402909144028091460298177E
:102CA00079F410924502E0913E02F0913F020995BD
:102CB000A6E2B0E0E6E2F0E08081877F8C9321C05D
:102CC000A7E2B0E0E7E2F0E08081807E8C93A7E2AB
:102CD000B0E0E7E2F0E04081209140023091410213
:102CE00080914402882F90E0F901E80FF91F80815C
:102CF000842B8C93A6E2B0E0E6E2F0E08081806471
:102D00008C93CF91DF91FF91EF91BF91AF919F9104
:102D10008F917F916F915F914F913F912F910F9084
:102D20000FBE0F901F901895DF93CF9300D0CDB7B3
:102D3000DEB79A838983E981FA818081E981FA810A
:102D40009181692F41E00E94921F0F900F90CF91C7
:102D5000DF910895DF93CF9300D0CDB7DEB79A838C
:102D60008983E981FA818281813059F4E981FA818C
:102D70008081E981FA819181692F41E00E94A1203F
:102D80000FC0E981FA818281882351F4E981FA81B7
:102D90008081E981FA819181692F40E00E94A12020
:102DA0000F900F90CF91DF910895DF93CF9300D0D4
:102DB000CDB7DEB79A838983E981FA818281813038
:102DC00059F4E981FA818081E981FA819181692F41
:102DD00040E00E94A1200FC0E981FA81828188230E
:102DE00051F4E981FA818081E981FA819181692F29
:102DF00041E00E94A1200F900F90CF91DF910895A4
:102E0000DF93CF9300D0CDB7DEB79A838983E98172
:102E1000FA818081E981FA819181692F0E9444229F
:102E20000F900F90CF91DF910895DF93CF930F9282
:102E3000CDB7DEB7898381E060E040E00E94A12049
:102E400081E061E040E00E94A120898182958F703D
:102E5000982F917081E064E0492F0E94A120898120
:102E6000829586958770982F917081E065E0492F53
:102E70000E94A12089818295869586958370982FDE
:102E8000917081E066E0492F0E94A1208981982FEE
:102E9000991F9927991F81E067E0492F0E94A1207F
:102EA0000E94071E8981982F917081E064E0492F6C
:102EB0000E94A12089818695982F917081E065E01C
:102EC000492F0E94A120898186958695982F91701F
:102ED00081E066E0492F0E94A12089818695869530
:102EE0008695982F917081E067E0492F0E94A1207C
:102EF0000E94071E0F90CF91DF910895DF93CF932B
:102F00000F92CDB7DEB7898381E060E041E00E9497
:102F1000A12081E061E040E00E94A12089818295AA
:102F20008F70982F917081E064E0492F0E94A1205A
:102F30008981829586958770982F917081E065E0F0
:102F4000492F0E94A120898182958695869583705C
:102F5000982F917081E066E0492F0E94A12089811D
:102F6000982F991F9927991F81E067E0492F0E94A8
:102F7000A1200E94071E8981982F917081E064E052
:102F8000492F0E94A12089818695982F917081E018
:102F900065E0492F0E94A120898186958695982F0A
:102FA000917081E066E0492F0E94A1208981869579
:102FB00086958695982F917081E067E0492F0E9451
:102FC000A1200E94071E0F90CF91DF910895DF93FB
:102FD000CF9300D00F92CDB7DEB789836A834B833E
:102FE0008A816B810E941B1A89810E947E170F9033
:102FF0000F900F90CF91DF910895DF93CF93CDB7CE
:10300000DEB7AA970FB6F894DEBF0FBECDBF81E042
:1030100064E041E00E94921F81E065E041E00E948F
:10302000921F81E066E041E00E94921F81E067E02C
:1030300041E00E94921F81E060E041E00E94921F07
:1030400081E061E041E00E94921F81E062E041E0A6
:103050000E94921F80E090E0A0EFB1E48FA398A7B8
:10306000A9A7BAA76FA178A589A59AA520E030E005
:103070004AEF54E40E94040FDC01CB018BA39CA314
:10308000ADA3BEA36BA17CA18DA19EA120E030E0E9
:1030900040E85FE30E940A1188232CF481E090E06D
:1030A0009AA389A33FC06BA17CA18DA19EA120E022
:1030B0003FEF4FE757E40E94AA1018164CF56FA196
:1030C00078A589A59AA520E030E040E251E40E946D
:1030D000040FDC01CB01BC01CD010E944900DC01E1
:1030E000CB019AA389A30FC088EC90E098A38F8F9F
:1030F0008F8D98A10197F1F798A38F8F89A19AA13D
:1031000001979AA389A389A19AA1009769F714C08E
:103110006BA17CA18DA19EA10E944900DC01CB0185
:103120009AA389A389A19AA19E8F8D8F8D8D9E8D43
:103130000197F1F79E8F8D8F83E30E94151782E32D
:103140000E94151788E20E9415178CE00E9415173F
:1031500080E090E0A0E8BFE3898F9A8FAB8FBC8FAF
:10316000698D7A8D8B8D9C8D20E030E04AEF54E4A0
:103170000E94040FDC01CB018D8B9E8BAF8BB88F2F
:103180006D897E898F89988D20E030E040E85FE38B
:103190000E940A1188232CF481E090E09C8B8B8B99
:1031A0003FC06D897E898F89988D20E03FEF4FE782
:1031B00057E40E94AA1018164CF5698D7A8D8B8DF4
:1031C0009C8D20E030E040E251E40E94040FDC01DD
:1031D000CB01BC01CD010E944900DC01CB019C8BDD
:1031E0008B8B0FC088EC90E09A8B898B89899A89A8
:1031F0000197F1F79A8B898B8B899C8901979C8B1E
:103200008B8B8B899C89009769F714C06D897E89A7
:103210008F89988D0E944900DC01CB019C8B8B8BA0
:103220008B899C89988B8F878F8598890197F1F777
:10323000988B8F8782E00E94151781E00E941517F6
:1032400080E090E0A0E0B0E48B879C87AD87BE87EC
:103250006B857C858D859E8520E030E04AEF54E4C7
:103260000E94040FDC01CB018F839887A987BA875E
:103270006F81788589859A8520E030E040E85FE3BA
:103280000E940A1188232CF481E090E09E838D83B4
:103290003FC06F81788589859A8520E03FEF4FE7B1
:1032A00057E40E94AA1018164CF56B857C858D8515
:1032B0009E8520E030E040E251E40E94040FDC01F2
:1032C000CB01BC01CD010E944900DC01CB019E83F2
:1032D0008D830FC088EC90E09C838B838B819C81D5
:1032E0000197F1F79C838B838D819E8101979E834B
:1032F0008D838D819E81009769F714C06F817885D9
:1033000089859A850E944900DC01CB019E838D83CB
:103310008D819E819A83898389819A810197F1F7B2
:103320009A83898386E00E941517AA960FB6F894AF
:10333000DEBF0FBECDBFCF91DF910895DF93CF9356
:1033400000D00F92CDB7DEB79B838A8319820EC05F
:103350008981282F30E08A819B81FC01E20FF31FD5
:1033600080810E947E1789818F5F89838981282FC0
:1033700030E08A819B81FC01E20FF31F808188236A
:1033800039F70F900F900F90CF91DF910895DF9351
:10339000CF9300D00F92CDB7DEB79B838A8319827B
:1033A00020C08981282F30E08A819B81FC01E20FB7
:1033B000F31F80810E947E1789818F5F89838981B5
:1033C000803179F481E060E00E941B1A8981282F06
:1033D00030E08A819B81FC01E20FF31F80810E9413
:1033E0007E178981282F30E08A819B81FC01E20FC2
:1033F000F31F80818823A9F60F900F900F90CF9133
:10340000DF910895DF93CF9300D000D0CDB7DEB722
:103410009A8389836B834C838B816C810E941B1AF6
:1034200089819A810E949E190F900F900F900F90A2
:10343000CF91DF910895DF93CF9300D00F92CDB756
:10344000DEB78A836B838A81882319F48B81898311
:1034500006C08A81813019F48B81805C89838981DF
:1034600080580E9415170F900F900F90CF91DF9109
:103470000895DF93CF93CDB7DEB727970FB6F894B3
:10348000DEBF0FBECDBF9C838B836D834E832F83A6
:103490001A828D81882F90E0880F991F880F991FBD
:1034A000880F991F8A838A81805C0E941517198270
:1034B0000EC08981282F30E08B819C81FC01E20FB6
:1034C000F31F80810E947E1789818F5F89838981A4
:1034D000883078F38E816F810E941B1A8D810E9443
:1034E0007E1727960FB6F894DEBF0FBECDBFCF91E3
:1034F000DF9108956F927F928F929F92AF92BF92C9
:10350000CF92DF92EF92FF920F931F93DF93CF93AF
:10351000CDB7DEB7E4970FB6F894DEBF0FBECDBFD0
:103520002DA73EA74FA758AB69AB7AAB8BAB9CAB33
:1035300088E2FE013596DF01982F1D929A95E9F7F2
:103540008AE090E0A0E0B0E089839A83AB83BC83FB
:103550008DA59EA5892B9FA5892B98A9892B99A913
:10356000892B9AA9892B9BA9892B9CA9892B882314
:1035700009F08CC080E30E947E17C4C089819A81C3
:10358000AB81BC813C014D01089461087108810840
:103590009108ADA4BEA4CFA4D8A8E9A8FAA80BA905
:1035A0001CA92A2D3B2D4C2D5D2D6E2D7F2D802F9E
:1035B000912F0F2EFAE0AF2EF02DBB24CC24DD246A
:1035C000EE24FF2400E010E00E94EA06A22EB32EB3
:1035D000C42ED52EE62EF72E082F192F2A2D3B2D7F
:1035E0004C2D5D2D6E2D7F2D802F912FDA01C9017D
:1035F000AC01BD01405D5F4F6F4F7F4FC3019C0128
:10360000220F331F220F331FCE010196820F931F0B
:10361000FC0134964083518362837383ADA4BEA4BE
:10362000CFA4D8A8E9A8FAA80BA91CA92A2D3B2D3C
:103630004C2D5D2D6E2D7F2D802F912F0F2EFAE0BA
:10364000AF2EF02DBB24CC24DD24EE24FF2400E09B
:1036500010E00E947500A22EB32EC42ED52EE62EA9
:10366000F72E082F192FADA6BEA6CFA6D8AAE9AA75
:10367000FAAA0BAB1CAB89819A81AB81BC81019703
:10368000A109B10989839A83AB83BC838DA59EA5CB
:10369000892B9FA5892B98A9892B99A9892B9AA950
:1036A000892B9BA9892B9CA9892B882309F066CF9C
:1036B00020C089819A81AB81BC819C01220F331F7C
:1036C000220F331FCE010196820F931FFC01349607
:1036D00080819181A281B3810E947E1789819A8124
:1036E000AB81BC810196A11DB11D89839A83AB83F7
:1036F000BC8389819A81AB81BC818A309105A10507
:10370000B105B8F2E4960FB6F894DEBF0FBECDBF98
:10371000CF91DF911F910F91FF90EF90DF90CF90AD
:10372000BF90AF909F908F907F906F900895AF92D1
:10373000BF92CF92DF92EF92FF920F931F93DF938E
:10374000CF9300D000D000D0CDB7DEB769837A83A5
:103750008B839C834D832E838D816E810E941B1AE7
:1037600089819A81AB81BC815C016D01EE24FF24CB
:1037700087012A2D3B2D4C2D5D2D6E2D7F2D802F09
:10378000912F0E947A1A26960FB6F894DEBF0FBECC
:10379000CDBFCF91DF911F910F91FF90EF90DF9000
:1037A000CF90BF90AF900895DF93CF93CDB7DEB7A2
:1037B0002E970FB6F894DEBF0FBECDBF81E00E94FA
:1037C000151780E090E0A0E2B1E48B879C87AD877D
:1037D000BE876B857C858D859E8520E030E04AEF35
:1037E00054E40E94040FDC01CB018F839887A987E2
:1037F000BA876F81788589859A8520E030E040E836
:103800005FE30E940A1188232CF481E090E09E83FC
:103810008D833FC06F81788589859A8520E03FEF51
:103820004FE757E40E94AA1018164CF56B857C856B
:103830008D859E8520E030E040E251E40E94040F37
:10384000DC01CB01BC01CD010E944900DC01CB01B0
:103850009E838D830FC088EC90E09C838B838B814B
:103860009C810197F1F79C838B838D819E810197C9
:103870009E838D838D819E81009769F714C06F812F
:10388000788589859A850E944900DC01CB019E8359
:103890008D838D819E819A83898389819A81019705
:1038A000F1F79A8389832E960FB6F894DEBF0FBE88
:1038B000CDBFCF91DF910895DF93CF9300D0CDB7E7
:1038C000DEB789836A8389816A810E941B1A80E23C
:1038D0000E947E170F900F90CF91DF910895DF9394
:1038E000CF93CDB7DEB72E970FB6F894DEBF0FBEDD
:1038F000CDBF8CE00E94151780E090E0A0E0B0E41E
:103900008B879C87AD87BE876B857C858D859E85E3
:1039100020E030E04AEF54E40E94040FDC01CB01C8
:103920008F839887A987BA876F81788589859A85DB
:1039300020E030E040E85FE30E940A1188232CF485
:1039400081E090E09E838D833FC06F81788589857B
:103950009A8520E03FEF4FE757E40E94AA1018161F
:103960004CF56B857C858D859E8520E030E040E2BE
:1039700051E40E94040FDC01CB01BC01CD010E9487
:103980004900DC01CB019E838D830FC088EC90E061
:103990009C838B838B819C810197F1F79C838B8324
:1039A0008D819E8101979E838D838D819E8100975D
:1039B00069F714C06F81788589859A850E944900CE
:1039C000DC01CB019E838D838D819E819A838983C7
:1039D00089819A810197F1F79A8389832E960FB690
:1039E000F894DEBF0FBECDBFCF91DF910895DF9376
:1039F000CF93CDB7DEB72E970FB6F894DEBF0FBECC
:103A0000CDBF8EE00E94151780E090E0A0E0B0E40A
:103A10008B879C87AD87BE876B857C858D859E85D2
:103A200020E030E04AEF54E40E94040FDC01CB01B7
:103A30008F839887A987BA876F81788589859A85CA
:103A400020E030E040E85FE30E940A1188232CF474
:103A500081E090E09E838D833FC06F81788589856A
:103A60009A8520E03FEF4FE757E40E94AA1018160E
:103A70004CF56B857C858D859E8520E030E040E2AD
:103A800051E40E94040FDC01CB01BC01CD010E9476
:103A90004900DC01CB019E838D830FC088EC90E050
:103AA0009C838B838B819C810197F1F79C838B8313
:103AB0008D819E8101979E838D838D819E8100974C
:103AC00069F714C06F81788589859A850E944900BD
:103AD000DC01CB019E838D838D819E819A838983B6
:103AE00089819A810197F1F79A8389832E960FB67F
:103AF000F894DEBF0FBECDBFCF91DF910895DF9365
:103B0000CF93CDB7DEB72E970FB6F894DEBF0FBEBA
:103B1000CDBF8FE00E94151780E090E0A0E0B0E4F8
:103B20008B879C87AD87BE876B857C858D859E85C1
:103B300020E030E04AEF54E40E94040FDC01CB01A6
:103B40008F839887A987BA876F81788589859A85B9
:103B500020E030E040E85FE30E940A1188232CF463
:103B600081E090E09E838D833FC06F817885898559
:103B70009A8520E03FEF4FE757E40E94AA101816FD
:103B80004CF56B857C858D859E8520E030E040E29C
:103B900051E40E94040FDC01CB01BC01CD010E9465
:103BA0004900DC01CB019E838D830FC088EC90E03F
:103BB0009C838B838B819C810197F1F79C838B8302
:103BC0008D819E8101979E838D838D819E8100973B
:103BD00069F714C06F81788589859A850E944900AC
:103BE000DC01CB019E838D838D819E819A838983A5
:103BF00089819A810197F1F79A8389832E960FB66E
:103C0000F894DEBF0FBECDBFCF91DF910895DF9353
:103C1000CF93CDB7DEB76C970FB6F894DEBF0FBE6B
:103C2000CDBF81E062E041E00E94A12080E090E011
:103C3000A0E0B0E4898F9A8FAB8FBC8F698D7A8DAD
:103C40008B8D9C8D20E030E04AEF54E40E94040FFD
:103C5000DC01CB018D8B9E8BAF8BB88F6D897E89FC
:103C60008F89988D20E030E040E85FE30E940A11E0
:103C700088232CF481E090E09C8B8B8B3FC06D8976
:103C80007E898F89988D20E03FEF4FE757E40E94AF
:103C9000AA1018164CF5698D7A8D8B8D9C8D20E0BD
:103CA00030E040E251E40E94040FDC01CB01BC0192
:103CB000CD010E944900DC01CB019C8B8B8B0FC096
:103CC00088EC90E09A8B898B89899A890197F1F722
:103CD0009A8B898B8B899C8901979C8B8B8B8B8989
:103CE0009C89009769F714C06D897E898F89988DAA
:103CF0000E944900DC01CB019C8B8B8B8B899C89BA
:103D0000988B8F878F8598890197F1F7988B8F878C
:103D100081E062E040E00E94A12080E090E0A0E02D
:103D2000B0E48B879C87AD87BE876B857C858D854E
:103D30009E8520E030E04AEF54E40E94040FDC014D
:103D4000CB018F839887A987BA876F81788589850A
:103D50009A8520E030E040E85FE30E940A11882362
:103D60002CF481E090E09E838D833FC06F81788545
:103D700089859A8520E03FEF4FE757E40E94AA101B
:103D800018164CF56B857C858D859E8520E030E08E
:103D900040E251E40E94040FDC01CB01BC01CD01E3
:103DA0000E944900DC01CB019E838D830FC088EC0B
:103DB00090E09C838B838B819C810197F1F79C839E
:103DC0008B838D819E8101979E838D838D819E81C2
:103DD000009769F714C06F81788589859A850E945C
:103DE0004900DC01CB019E838D838D819E819A8366
:103DF000898389819A810197F1F79A8389836C96E7
:103E00000FB6F894DEBF0FBECDBFCF91DF910895FE
:103E1000DF93CF9300D0CDB7DEB79A838983E98152
:103E2000FA818081E981FA819181692F41E00E94C4
:103E3000921FE981FA818081E981FA819281692F5B
:103E400041E00E94921F0F900F90CF91DF91089553
:103E5000DF93CF9300D000D000D0CDB7DEB79B83E7
:103E60008A836C8381E089838C81282F30E03E83B4
:103E70002D838D819E8181309105F9F02D813E81C8
:103E80002230310579F18D819E81009709F03FC084
:103E9000EA81FB818081EA81FB819181692F40E089
:103EA0000E94A120EA81FB818081EA81FB819281CD
:103EB000692F41E00E94A1202BC0EA81FB81808113
:103EC000EA81FB819281692F40E00E94A120EA8172
:103ED000FB818081EA81FB819181692F41E00E9411
:103EE000A12016C0EA81FB818081EA81FB81928159
:103EF000692F40E00E94A120EA81FB818081EA8154
:103F0000FB819181692F40E00E94A12001C01982AC
:103F1000898126960FB6F894DEBF0FBECDBFCF9134
:103F2000DF910895DF93CF93CDB7DEB728970FB613
:103F3000F894DEBF0FBECDBF8A836B834C8381E0D4
:103F400089838A81843008F0F1C08B81883008F041
:103F5000EDC08C81813009F06FC08A81282F30E05C
:103F600038872F838F8198858130910549F12F8182
:103F70003885223031052CF48F819885009761F0C7
:103F8000D6C02F8138852230310571F18F81988517
:103F900083309105E9F1CBC0AAE3B0E0EAE3F0E0B9
:103FA0008081482F8B81282F30E081E090E0022E25
:103FB00002C0880F991F0A94E2F7842B8C93B7C034
:103FC000A7E3B0E0E7E3F0E08081482F8B81282F62
:103FD00030E081E090E0022E02C0880F991F0A9421
:103FE000E2F7842B8C93A3C0A4E3B0E0E4E3F0E019
:103FF0008081482F8B81282F30E081E090E0022ED5
:1040000002C0880F991F0A94E2F7842B8C938FC00B
:10401000A1E3B0E0E1E3F0E08081482F8B81282F1D
:1040200030E081E090E0022E02C0880F991F0A94D0
:10403000E2F7842B8C937BC08C81882309F074C0B9
:104040008A81282F30E03E832D838D819E818130AF
:10405000910559F12D813E81223031052CF48D815D
:104060009E81009769F063C02D813E812230310529
:1040700089F18D819E818330910509F440C057C03C
:10408000AAE3B0E0EAE3F0E08081482F8B81282F9B
:1040900030E081E090E0022E02C0880F991F0A9460
:1040A000E2F7809584238C9342C0A7E3B0E0E7E376
:1040B000F0E08081482F8B81282F30E081E090E074
:1040C000022E02C0880F991F0A94E2F7809584237C
:1040D0008C932DC0A4E3B0E0E4E3F0E08081482FAE
:1040E0008B81282F30E081E090E0022E02C0880F03
:1040F000991F0A94E2F7809584238C9318C0A1E35A
:10410000B0E0E1E3F0E08081482F8B81282F30E0A0
:1041100081E090E0022E02C0880F991F0A94E2F716
:10412000809584238C9303C0198201C019828981F0
:1041300028960FB6F894DEBF0FBECDBFCF91DF91AA
:104140000895DF93CF93CDB7DEB728970FB6F894D5
:10415000DEBF0FBECDBF8A836B834C8381E0898332
:104160008A81843008F0F1C08B81883008F0EDC07E
:104170008C81813009F06FC08A81282F30E0388728
:104180002F838F8198858130910549F12F81388562
:10419000223031052CF48F819885009761F0D6C0CC
:1041A0002F8138852230310571F18F8198858330D8
:1041B0009105E9F1CBC0ABE3B0E0EBE3F0E0808147
:1041C000482F8B81282F30E081E090E0022E02C042
:1041D000880F991F0A94E2F7842B8C93B7C0A8E349
:1041E000B0E0E8E3F0E08081482F8B81282F30E0B9
:1041F00081E090E0022E02C0880F991F0A94E2F736
:10420000842B8C93A3C0A5E3B0E0E5E3F0E08081CC
:10421000482F8B81282F30E081E090E0022E02C0F1
:10422000880F991F0A94E2F7842B8C938FC0A2E326
:10423000B0E0E2E3F0E08081482F8B81282F30E06E
:1042400081E090E0022E02C0880F991F0A94E2F7E5
:10425000842B8C937BC08C81882309F074C08A8165
:10426000282F30E03E832D838D819E818130910502
:1042700059F12D813E81223031052CF48D819E81B2
:10428000009769F063C02D813E812230310589F1AC
:104290008D819E818330910509F440C057C0ABE306
:1042A000B0E0EBE3F0E08081482F8B81282F30E0F5
:1042B00081E090E0022E02C0880F991F0A94E2F775
:1042C000809584238C9342C0A8E3B0E0E8E3F0E05B
:1042D0008081482F8B81282F30E081E090E0022EF2
:1042E00002C0880F991F0A94E2F7809584238C936B
:1042F0002DC0A5E3B0E0E5E3F0E08081482F8B819D
:10430000282F30E081E090E0022E02C0880F991F34
:104310000A94E2F7809584238C9318C0A2E3B0E05E
:10432000E2E3F0E08081482F8B81282F30E081E0AC
:1043300090E0022E02C0880F991F0A94E2F7809540
:1043400084238C9303C0198201C019828981289625
:104350000FB6F894DEBF0FBECDBFCF91DF910895A9
:10436000DF93CF93CDB7DEB727970FB6F894DEBFB4
:104370000FBECDBF8A836B835D834C8381E08983CD
:104380008A81843008F075C08B81883008F071C054
:104390008A81282F30E03F832E834E815F81413018
:1043A000510559F18E819F818230910534F42E811F
:1043B0003F812115310569F05DC04E815F8142303A
:1043C000510579F18E819F818330910509F43DC0BB
:1043D00051C0E9E3F0E08081282F30E08B81882F05
:1043E00090E0A90102C0559547958A95E2F7CA0168
:1043F0008170EC81FD8180833DC0E6E3F0E0808147
:10440000282F30E08B81882F90E0A90102C05595BC
:1044100047958A95E2F7CA018170EC81FD8180831E
:1044200029C0E3E3F0E08081282F30E08B81882FE2
:1044300090E0A90102C0559547958A95E2F7CA0117
:104440008170EC81FD81808315C0E0E3F0E0808124
:10445000282F30E08B81882F90E0A90102C055956C
:1044600047958A95E2F7CA018170EC81FD818083CE
:1044700001C01982898127960FB6F894DEBF0FBE5E
:10448000CDBFCF91DF910895DF93CF9300D000D0BF
:104490000F92CDB7DEB78A836B8381E089838A81EF
:1044A000843008F073C08B81883008F06FC08A8137
:1044B000282F30E03D832C838C819D8181309105B4
:1044C00049F12C813D81223031052CF48C819D8174
:1044D000009761F05CC02C813D812230310571F183
:1044E0008C819D8183309105E9F151C0ABE3B0E04F
:1044F000EBE3F0E08081482F8B81282F30E081E0D2
:1045000090E0022E02C0880F991F0A94E2F78427D8
:104510008C933DC0A8E3B0E0E8E3F0E08081482F51
:104520008B81282F30E081E090E0022E02C0880FBE
:10453000991F0A94E2F784278C9329C0A5E3B0E081
:10454000E5E3F0E08081482F8B81282F30E081E087
:1045500090E0022E02C0880F991F0A94E2F7842788
:104560008C9315C0A2E3B0E0E2E3F0E08081482F35
:104570008B81282F30E081E090E0022E02C0880F6E
:10458000991F0A94E2F784278C9301C019828981CC
:104590000F900F900F900F900F90CF91DF91089593
:1045A000DF93CF93CDB7DEB727970FB6F894DEBF72
:1045B0000FBECDBF8A836B8381E089838A8184307B
:1045C00008F06AC08B818F3F99F58A81282F30E0EF
:1045D0003F832E838E819F8181309105D1F02E8182
:1045E0003F81223031052CF48E819F81009761F04C
:1045F00054C02E813F812230310581F08E819F8110
:104600008330910581F049C0EAE3F0E08FEF8083C9
:1046100044C0E7E3F0E08FEF80833FC0E4E3F0E0E5
:104620008FEF80833AC0E1E3F0E08FEF808335C005
:104630008B81882379F58A81282F30E03D832C8374
:104640008C819D8181309105C9F02C813D81223082
:1046500031052CF48C819D81009761F01EC02C8166
:104660003D812230310571F08C819D81833091052F
:1046700069F013C0EAE3F0E010820FC0E7E3F0E076
:1046800010820BC0E4E3F0E0108207C0E1E3F0E049
:10469000108203C0198201C01982898127960FB642
:1046A000F894DEBF0FBECDBFCF91DF910895DF93A9
:1046B000CF9300D000D00F92CDB7DEB78A836B8343
:1046C00081E089838A81843098F58A81282F30E0BF
:1046D0003D832C838C819D8181309105D1F02C818B
:1046E0003D81223031052CF48C819D81009761F051
:1046F00020C02C813D812230310581F08C819D814B
:104700008330910581F015C0EBE3F0E08B8180836D
:1047100010C0E8E3F0E08B8180830BC0E5E3F0E0BC
:104720008B81808306C0E2E3F0E08B81808301C04F
:10473000198289810F900F900F900F900F90CF9159
:10474000DF910895DF93CF9300D000D0CDB7DEB7CF
:104750008A8381E089838A81843008F03FC08A811E
:10476000282F30E03C832B838B819C818130910505
:10477000E9F02B813C81223031052CF48B819C8126
:10478000009761F02CC02B813C8122303105B1F0C3
:104790008B819C8183309105C9F021C0ABE3B0E0EF
:1047A000EBE3F0E0808180958C9319C0A8E3B0E042
:1047B000E8E3F0E0808180958C9311C0A5E3B0E040
:1047C000E5E3F0E0808180958C9309C0A2E3B0E03E
:1047D000E2E3F0E0808180958C9301C019828981A9
:1047E0000F900F900F900F90CF91DF910895DF936E
:1047F000CF93CDB7DEB727970FB6F894DEBF0FBEC5
:10480000CDBF8A836B8381E089838A81843008F0FD
:1048100088C08B818F3F09F03FC08A81282F30E00C
:104820003F832E838E819F8181309105E9F02E8117
:104830003F81223031052CF48E819F81009761F0F9
:1048400071C02E813F8122303105B1F08E819F8170
:1048500083309105C9F066C0AAE3B0E0EAE3F0E076
:104860008081806F8C935EC0A7E3B0E0E7E3F0E067
:104870008081806F8C9356C0A4E3B0E0E4E3F0E065
:104880008081806F8C934EC0A1E3B0E0E1E3F0E063
:104890008081806F8C9346C08B81882309F03FC054
:1048A0008A81282F30E03D832C838C819D8181304B
:1048B0009105E9F02C813D81223031052CF48C8169
:1048C0009D81009761F02EC02C813D812230310501
:1048D000B1F08C819D8183309105C9F023C0AAE39A
:1048E000B0E0EAE3F0E080818F708C931BC0A7E317
:1048F000B0E0E7E3F0E080818F708C9313C0A4E315
:10490000B0E0E4E3F0E080818F708C930BC0A1E312
:10491000B0E0E1E3F0E080818F708C9303C01982F6
:1049200001C01982898127960FB6F894DEBF0FBEA9
:10493000CDBFCF91DF910895DF93CF93CDB7DEB791
:1049400027970FB6F894DEBF0FBECDBF8A836B8367
:1049500081E089838A81843008F0A8C08B818F3FF1
:1049600009F04FC08A81282F30E03F832E838E814B
:104970009F818130910509F12E813F8122303105DF
:104980002CF48E819F81009761F091C02E813F8130
:1049900022303105F1F08E819F818330910529F11C
:1049A00086C0ABE3B0E0EBE3F0E08081982F9F702E
:1049B0008B81807F892B8C937AC0A8E3B0E0E8E3F9
:1049C000F0E08081982F9F708B81807F892B8C9362
:1049D0006EC0A5E3B0E0E5E3F0E08081982F9F7022
:1049E0008B81807F892B8C9362C0A2E3B0E0E2E3ED
:1049F000F0E08081982F9F708B81807F892B8C9332
:104A000056C08B81882309F04FC08A81282F30E05F
:104A10003D832C838C819D818130910509F12C810E
:104A20003D81223031052CF48C819D81009761F00D
:104A30003EC02C813D8122303105F1F08C819D8179
:104A40008330910529F133C0ABE3B0E0EBE3F0E054
:104A50008081982F9F708B81807F892B8C9327C0BA
:104A6000A8E3B0E0E8E3F0E08081982F9F708B81AD
:104A7000807F892B8C931BC0A5E3B0E0E5E3F0E0D9
:104A80008081982F9F708B81807F892B8C930FC0A2
:104A9000A2E3B0E0E2E3F0E08081982F9F708B8189
:104AA000807F892B8C9303C0198201C01982898170
:104AB00027960FB6F894DEBF0FBECDBFCF91DF9122
:104AC0000895DF93CF93CDB7DEB727970FB6F8944D
:104AD000DEBF0FBECDBF8A836B8381E089838A816D
:104AE000843008F088C08B818F3F09F03FC08A81F5
:104AF000282F30E03F832E838E819F818130910566
:104B0000E9F02E813F81223031052CF48E819F8186
:104B1000009761F071C02E813F8122303105B1F0E4
:104B20008E819F8183309105C9F066C0AAE3B0E011
:104B3000EAE3F0E080818F608C935EC0A7E3B0E091
:104B4000E7E3F0E080818F608C9356C0A4E3B0E08F
:104B5000E4E3F0E080818F608C934EC0A1E3B0E08D
:104B6000E1E3F0E080818F608C9346C08B818823E5
:104B700009F03FC08A81282F30E03D832C838C814F
:104B80009D8181309105E9F02C813D8122303105F4
:104B90002CF48C819D81009761F02EC02C813D8189
:104BA00022303105B1F08C819D8183309105C9F0AF
:104BB00023C0AAE3B0E0EAE3F0E08081807F8C9339
:104BC0001BC0A7E3B0E0E7E3F0E08081807F8C9337
:104BD00013C0A4E3B0E0E4E3F0E08081807F8C9335
:104BE0000BC0A1E3B0E0E1E3F0E08081807F8C9333
:104BF00003C0198201C01982898127960FB6F894E3
:104C0000DEBF0FBECDBFCF91DF910895DF93CF936D
:104C1000CDB7DEB727970FB6F894DEBF0FBECDBF76
:104C20008A836B8381E089838A81843008F0A8C0FD
:104C30008B818F3F09F04FC08A81282F30E03F835E
:104C40002E838E819F818130910509F12E813F81D4
:104C5000223031052CF48E819F81009761F091C044
:104C60002E813F8122303105F1F08E819F8183308A
:104C7000910529F186C0ABE3B0E0EBE3F0E0808181
:104C8000982F907F8B818F70892B8C937AC0A8E3AB
:104C9000B0E0E8E3F0E08081982F907F8B818F7007
:104CA000892B8C936EC0A5E3B0E0E5E3F0E0808152
:104CB000982F907F8B818F70892B8C9362C0A2E399
:104CC000B0E0E2E3F0E08081982F907F8B818F70DD
:104CD000892B8C9356C08B81882309F04FC08A8121
:104CE000282F30E03D832C838C819D81813091057C
:104CF00009F12C813D81223031052CF48C819D817C
:104D0000009761F03EC02C813D8122303105F1F0E9
:104D10008C819D818330910529F133C0ABE3B0E0F4
:104D2000EBE3F0E08081982F907F8B818F70892B4F
:104D30008C9327C0A8E3B0E0E8E3F0E08081982FEF
:104D4000907F8B818F70892B8C931BC0A5E3B0E083
:104D5000E5E3F0E08081982F907F8B818F70892B25
:104D60008C930FC0A2E3B0E0E2E3F0E08081982FE3
:104D7000907F8B818F70892B8C9303C0198201C027
:104D80001982898127960FB6F894DEBF0FBECDBF7A
:104D9000CF91DF910895DF93CF93CDB7DEB7A5E52F
:104DA000B0E0E5E5F0E0808182608C93A5E5B0E0BD
:104DB000E5E5F0E080818E7F8C93ABE5B0E0EBE53C
:104DC000F0E0808180648C93CF91DF910895DF9330
:104DD000CF93CDB7DEB7A5E5B0E0E5E5F0E08081A3
:104DE00088608C93A5E5B0E0E5E5F0E08081846023
:104DF0008C93ABE5B0E0EBE5F0E0808180688C93CC
:104E0000CF91DF910895DF93CF93CDB7DEB7A4E5BF
:104E1000B0E0E4E5F0E080818F7B8C93ABE5B0E01F
:104E2000EBE5F0E080818F7D8C93CF91DF91089549
:104E3000DF93CF93CDB7DEB72B970FB6F894DEBFD5
:104E40000FBECDBF8A836B8381E089838A81282F3F
:104E500030E03B872A878A859B858130910509F45C
:104E600086C02A853B852230310509F4FBC08A853E
:104E70009B85009709F026C18B81282F30E0398768
:104E80002887888599858230910569F1288539853B
:104E90002330310534F4888599858130910569F096
:104EA00064C0288539852330310599F18885998535
:104EB0008430910509F443C058C0A5E5B0E0E5E5AC
:104EC000F0E0808182608C93A5E5B0E0E5E5F0E05C
:104ED00080818E7F8C93ABE5B0E0EBE5F0E08081E4
:104EE00080648C93F0C0A5E5B0E0E5E5F0E080815A
:104EF00082608C93A5E5B0E0E5E5F0E0808181601B
:104F00008C93ABE5B0E0EBE5F0E0808180648C93BE
:104F1000DAC0A5E5B0E0E5E5F0E080818D7F8C9317
:104F2000A5E5B0E0E5E5F0E0808181608C93ABE53C
:104F3000B0E0EBE5F0E0808180648C93C4C0A5E52F
:104F4000B0E0E5E5F0E080818D7F8C93A5E5B0E0F1
:104F5000E5E5F0E080818E7F8C93ABE5B0E0EBE59A
:104F6000F0E0808180648C93AEC01982ACC08B81EC
:104F7000282F30E03F832E838E819F8182309105E0
:104F800069F12E813F812330310534F48E819F8178
:104F90008130910569F064C02E813F812330310555
:104FA00099F18E819F818430910509F443C058C0E6
:104FB000A5E5B0E0E5E5F0E0808188608C93A5E5AB
:104FC000B0E0E5E5F0E080818B7F8C93ABE5B0E06D
:104FD000EBE5F0E0808180688C9375C0A5E5B0E0DA
:104FE000E5E5F0E0808188608C93A5E5B0E0E5E53B
:104FF000F0E0808184608C93ABE5B0E0EBE5F0E01D
:10500000808180688C935FC0A5E5B0E0E5E5F0E0C5
:105010008081877F8C93A5E5B0E0E5E5F0E08081B5
:1050200084608C93ABE5B0E0EBE5F0E080818068D4
:105030008C9349C0A5E5B0E0E5E5F0E08081877F8D
:105040008C93A5E5B0E0E5E5F0E080818B7F8C9363
:10505000ABE5B0E0EBE5F0E0808180688C9333C095
:10506000198231C08B81282F30E03D832C838C81C5
:105070009D818130910531F02C813D8122303105B7
:1050800081F01EC0A4E5B0E0E4E5F0E080818F7B14
:105090008C93ABE5B0E0EBE5F0E0808180628C932F
:1050A00012C0A4E5B0E0E4E5F0E0808180648C9378
:1050B000ABE5B0E0EBE5F0E0808180628C9303C06B
:1050C000198201C0198289812B960FB6F894DEBF30
:1050D0000FBECDBFCF91DF910895DF93CF9300D066
:1050E00000D0CDB7DEB78A8381E089838A81282FFB
:1050F00030E03C832B838B819C818130910589F04A
:105100002B813C8122303105A1F08B819C8100975D
:10511000C1F4ABE5B0E0EBE5F0E080818F7B8C93F0
:1051200011C0ABE5B0E0EBE5F0E080818F778C93C8
:1051300009C0ABE5B0E0EBE5F0E080818F7D8C93BA
:1051400001C0198289810F900F900F900F90CF911D
:10515000DF910895DF93CF9300D00F92CDB7DEB7E4
:105160009B838A8381E089838A819B81009739F0C0
:105170008A819B81909349028093480201C01982E1
:1051800089810F900F900F90CF91DF910895DF9359
:10519000CF9300D00F92CDB7DEB79B838A8381E097
:1051A00089838A819B81009739F08A819B819093C2
:1051B0004B0280934A0201C0198289810F900F909F
:1051C0000F90CF91DF910895DF93CF9300D00F928E
:1051D000CDB7DEB79B838A8381E089838A819B81F7
:1051E000009739F08A819B8190934D0280934C0205
:1051F00001C0198289810F900F900F90CF91DF919C
:1052000008951F920F920FB60F9211242F933F9380
:105210004F935F936F937F938F939F93AF93BF93BE
:10522000EF93FF93DF93CF93CDB7DEB78091480222
:1052300090914902009729F0E0914802F0914902CB
:105240000995CF91DF91FF91EF91BF91AF919F9120
:105250008F917F916F915F914F913F912F910F901F
:105260000FBE0F901F9018951F920F920FB60F92BE
:1052700011242F933F934F935F936F937F938F935B
:105280009F93AF93BF93EF93FF93DF93CF93CDB7EC
:10529000DEB780914A0290914B02009729F0E0918D
:1052A0004A02F0914B020995CF91DF91FF91EF9166
:1052B000BF91AF919F918F917F916F915F914F912E
:1052C0003F912F910F900FBE0F901F9018951F9236
:1052D0000F920FB60F9211242F933F934F935F932A
:1052E0006F937F938F939F93AF93BF93EF93FF93AE
:1052F000DF93CF93CDB7DEB780914C0290914D02F2
:10530000009729F0E0914C02F0914D020995CF9160
:10531000DF91FF91EF91BF91AF919F918F917F911D
:105320006F915F914F913F912F910F900FBE0F9012
:105330001F901895DF93CF93CDB7DEB7AFE5B0E000
:10534000EFE5F0E0808180688C93CF91DF91089544
:10535000DF93CF93CDB7DEB7AFE5B0E0EFE5F0E098
:1053600080818F778C93CF91DF910895DF93CF93D6
:10537000CDB7DEB782E060E040E00E94921F82E09D
:1053800061E040E00E94921F82E062E040E00E9403
:10539000921F82E063E040E00E94921F82E060E0A2
:1053A00041E00E94A12082E061E041E00E94A12052
:1053B00082E062E041E00E94A12082E063E041E0FF
:1053C0000E94A12082E064E041E00E94921F82E0FE
:1053D00065E041E00E94921F82E066E041E00E94A9
:1053E000921F82E067E041E00E94921F82E064E049
:1053F00041E00E94A12082E065E041E00E94A120FE
:1054000082E066E041E00E94A12082E067E041E0A6
:105410000E94A120CF91DF910895DF93CF9300D018
:10542000CDB7DEB78FEF8983109250026AC08091AA
:105430005002882F90E0FC01E25EFD4F908182E0F7
:10544000692F40E00E94A12010924F0243C080913A
:105450004F02882F90E0FC01E65EFD4F90812EE424
:1054600032E082E0692FA9010E94B02180914E02B2
:10547000882359F580914F02482F50E080915002C7
:10548000282F30E0CA01880F991F880F991F820FBB
:10549000931FFC01EE5DFD4F808189830FC08091D9
:1054A0004F02882F90E0FC01E65EFD4F90812EE4D4
:1054B00032E082E0692FA9010E94B02180914E0262
:1054C000882369F389818A8323C080914F028F5F8B
:1054D00080934F0280914F02843008F4B8CF8091BE
:1054E0005002882F90E0FC01E25EFD4F908182E047
:1054F000692F41E00E94A120809150028F5F80932C
:10550000500280915002843008F491CF89818A83BF
:105510008A810F900F90CF91DF910895DF93CF9301
:10552000CDB7DEB70E945A14CF91DF910895DF9373
:10553000CF9300D000D000D0CDB7DEB78D836E837F
:105540009E012D5F3F4F8D81B9010E9499148E817C
:105550008A30D9F48B819C81CC01A0E0B0E028E8AE
:1055600033E140E050E0BC01CD010E94E44BDC019E
:10557000CB01072E7AE0B695A795979587957A95F2
:10558000D1F7702D9A83898318C08E818830A9F451
:105590008B819C81CC01A0E0B0E028E833E140E0C1
:1055A00050E0BC01CD010E94E44BDC01CB01892F0E
:1055B0009A2FAB2FBB279A83898389819A812AE00E
:1055C00030E0B9010E94034CCB0126960FB6F89447
:1055D000DEBF0FBECDBFCF91DF910895DF93CF9394
:1055E00000D0CDB7DEB79A838983E981FA818081C3
:1055F000E981FA819181692F41E00E94921F0F9009
:105600000F90CF91DF910895DF93CF9300D0CDB766
:10561000DEB79A838983E981FA818281813059F4E6
:10562000E981FA818081E981FA819181692F41E0E4
:105630000E94A1200FC0E981FA818281882351F460
:10564000E981FA818081E981FA819181692F40E0C5
:105650000E94A1200F900F90CF91DF910895DF93CA
:10566000CF9300D0CDB7DEB79A838983E981FA81E1
:105670008281813059F4E981FA818081E981FA815E
:105680009181692F40E00E94A1200FC0E981FA8139
:105690008281882351F4E981FA818081E981FA814C
:1056A0009181692F41E00E94A1200F900F90CF912E
:1056B000DF910895DF93CF9300D0CDB7DEB79A8303
:1056C0008983E981FA818081E981FA819181692F59
:1056D0000E9444220F900F90CF91DF910895DF93A5
:1056E000CF9300D0CDB7DEB79A838983E981FA8161
:1056F00080816FEF0E94D0220F900F90CF91DF91A9
:105700000895DF93CF9300D0CDB7DEB79A83898316
:10571000E981FA818181813039F4E981FA818081DE
:105720006FEF0E9457230BC0E981FA8181818823A2
:1057300031F4E981FA81808160E00E9457230F9063
:105740000F90CF91DF910895DF93CF9300D0CDB725
:10575000DEB79A838983E981FA818181813039F4C6
:10576000E981FA81808160E00E9457230BC0E981C2
:10577000FA818181882331F4E981FA8180816FEF98
:105780000E9457230F900F90CF91DF910895DF93E0
:10579000CF9300D0CDB7DEB79A838983E981FA81B0
:1057A00080810E94A2230F900F90CF91DF910895E6
:1057B000DF93CF9300D00F92CDB7DEB79A83898362
:1057C0006B83E981FA818181813039F4E981FA8141
:1057D00080816B810E9457230BC0E981FA8181810E
:1057E000882331F4E981FA8180816B810E945723FB
:1057F0000F900F900F90CF91DF910895AF92BF92CD
:10580000CF92DF92EF92FF920F931F93DF93CF938C
:10581000CDB7DEB7A4970FB6F894DEBF0FBECDBFED
:105820006D8B7E8B8F8B988F298F3A8F4B8F5C8FF0
:10583000ED8EFE8E0F8F18A3A9A2BAA2CBA2DCA276
:10584000298D3A8D4B8D5C8D8D899E89AF89B88D60
:1058500079018A01E81AF90A0A0B1B0BD801C70162
:10586000898B9A8BAB8BBC8B29A13AA14BA15CA1F4
:105870008D8D9E8DAF8DB8A179018A01E81AF90A44
:105880000A0B1B0BD801C7018D879E87AF87B88B8A
:1058900029A93AA94BA95CA98D899E89AF89B88DA0
:1058A00079018A01E81AF90A0A0B1B0BD801C70112
:1058B00089879A87AB87BC8769857A858B859C8524
:1058C0000E943A117B018C0169897A898B899C89B4
:1058D0000E943A119B01AC01C801B7010E94FE0F62
:1058E000DC01CB018D839E83AF83B8876D857E8578
:1058F0008F8598890E943A11DC01CB01BC01CD0152
:105900002D813E814F8158850E94040FDC01CB011F
:10591000BC01CD010E9498119B01AC018D8D9E8D23
:10592000AF8DB8A1820F931FA41FB51F89839A83DF
:10593000AB83BC8389819A81AB81BC81BC01CD01E1
:10594000A4960FB6F894DEBF0FBECDBFCF91DF9106
:105950001F910F91FF90EF90DF90CF90BF90AF908D
:105960000895DF93CF93CDB7DEB729970FB6F8949C
:10597000DEBF0FBECDBF9D838C837F836E83488740
:1059800029871B821A8298858985981761F5198263
:105990001AC08981282F30E08C819D81FC01E20FA3
:1059A000F31F40818981282F30E08E819F81FC0187
:1059B000E20FF31F8081481719F48A818F5F8A8371
:1059C00089818F5F89838981282F30E08885882F9E
:1059D00090E0019782179307E4F69A8188859817DB
:1059E00011F481E08B838B8129960FB6F894DEBF8A
:1059F0000FBECDBFCF91DF910895DF93CF93CDB789
:105A0000DEB76C970FB6F894DEBF0FBECDBF0E9415
:105A1000D41B80E690E060E040E00E94021A80E043
:105A200090E0AAE7B4E4898F9A8FAB8FBC8F698D21
:105A30007A8D8B8D9C8D20E030E04AEF54E40E94FB
:105A4000040FDC01CB018D8B9E8BAF8BB88F6D89E2
:105A50007E898F89988D20E030E040E85FE30E94E6
:105A60000A1188232CF481E090E09C8B8B8B3FC043
:105A70006D897E898F89988D20E03FEF4FE757E44D
:105A80000E94AA1018164CF5698D7A8D8B8D9C8D0D
:105A900020E030E040E251E40E94040FDC01CB0141
:105AA000BC01CD010E944900DC01CB019C8B8B8B9A
:105AB0000FC088EC90E09A8B898B89899A8901972D
:105AC000F1F79A8B898B8B899C8901979C8B8B8BA7
:105AD0008B899C89009769F714C06D897E898F89AD
